{
  "contractName": "AgentFactory",
  "abi": [
    {
      "constant": false,
      "inputs": [
        {
          "name": "_participants",
          "type": "address[]"
        },
        {
          "name": "_timeToExpire",
          "type": "uint256"
        }
      ],
      "name": "createExchangeAgent",
      "outputs": [],
      "payable": false,
      "stateMutability": "nonpayable",
      "type": "function"
    },
    {
      "constant": true,
      "inputs": [],
      "name": "getExchangeAgents",
      "outputs": [
        {
          "name": "",
          "type": "address[]"
        }
      ],
      "payable": false,
      "stateMutability": "view",
      "type": "function"
    }
  ],
  "bytecode": "0x608060405234801561001057600080fd5b50611571806100206000396000f30060806040526004361061004c576000357c0100000000000000000000000000000000000000000000000000000000900463ffffffff1680637ef9eb5d14610051578063a828004e146100bd575b600080fd5b34801561005d57600080fd5b50610066610102565b6040518080602001828103825283818151815260200191508051906020019060200280838360005b838110156100a957808201518184015260208101905061008e565b505050509050019250505060405180910390f35b3480156100c957600080fd5b5061010060048036038101908080359060200190820180359060200191909192939192939080359060200190929190505050610190565b005b6060600080548060200260200160405190810160405280929190818152602001828054801561018657602002820191906000526020600020905b8160009054906101000a900473ffffffffffffffffffffffffffffffffffffffff1673ffffffffffffffffffffffffffffffffffffffff168152602001906001019080831161013c575b5050505050905090565b600083838361019d610255565b808060200183815260200182810382528585828181526020019250602002808284378201915050945050505050604051809103906000f0801580156101e6573d6000803e3d6000fd5b50905060008190806001815401808255809150509060018203906000526020600020016000909192909190916101000a81548173ffffffffffffffffffffffffffffffffffffffff021916908373ffffffffffffffffffffffffffffffffffffffff1602179055505050505050565b6040516112e080610266833901905600608060405234801561001057600080fd5b506040516112e03803806112e08339810180604052810190808051820192919060200180519060200190929190505050804201600081905550816003908051906020019061005f92919061009d565b506000600260006101000a81548160ff0219169083151502179055506001600260016101000a81548160ff021916908315150217905550505061016a565b828054828255906000526020600020908101928215610116579160200282015b828111156101155782518260006101000a81548173ffffffffffffffffffffffffffffffffffffffff021916908373ffffffffffffffffffffffffffffffffffffffff160217905550916020019190600101906100bd565b5b5090506101239190610127565b5090565b61016791905b8082111561016357600081816101000a81549073ffffffffffffffffffffffffffffffffffffffff02191690555060010161012d565b5090565b90565b611167806101796000396000f3006080604052600436106100c5576000357c0100000000000000000000000000000000000000000000000000000000900463ffffffff168063107e8456146100ca57806327e235e3146100f95780632dfdf0b5146101505780633ccfd60b1461017b5780634051ddac1461019257806350188301146102225780635aa68ac014610251578063604f9175146102bd5780636b18eca814610340578063b8aede9c14610357578063cabfaa181461036e578063da284dcc14610399578063ea27416d146103c4575b600080fd5b3480156100d657600080fd5b506100df610445565b604051808215151515815260200191505060405180910390f35b34801561010557600080fd5b5061013a600480360381019080803573ffffffffffffffffffffffffffffffffffffffff169060200190929190505050610458565b6040518082815260200191505060405180910390f35b34801561015c57600080fd5b50610165610470565b6040518082815260200191505060405180910390f35b34801561018757600080fd5b50610190610476565b005b34801561019e57600080fd5b506101a761062f565b60405180806020018681526020018581526020018415151515815260200183151515158152602001828103825287818151815260200191508051906020019060200280838360005b8381101561020a5780820151818401526020810190506101ef565b50505050905001965050505050505060405180910390f35b34801561022e57600080fd5b506102376106f5565b604051808215151515815260200191505060405180910390f35b34801561025d57600080fd5b50610266610708565b6040518080602001828103825283818151815260200191508051906020019060200280838360005b838110156102a957808201518184015260208101905061028e565b505050509050019250505060405180910390f35b3480156102c957600080fd5b506102fe600480360381019080803573ffffffffffffffffffffffffffffffffffffffff169060200190929190505050610796565b604051808273ffffffffffffffffffffffffffffffffffffffff1673ffffffffffffffffffffffffffffffffffffffff16815260200191505060405180910390f35b34801561034c57600080fd5b506103556107c9565b005b34801561036357600080fd5b5061036c610824565b005b34801561037a57600080fd5b50610383610d20565b6040518082815260200191505060405180910390f35b3480156103a557600080fd5b506103ae610d2d565b6040518082815260200191505060405180910390f35b3480156103d057600080fd5b50610443600480360381019080803590602001909291908035906020019092919080359060200190929190803573ffffffffffffffffffffffffffffffffffffffff169060200190929190803573ffffffffffffffffffffffffffffffffffffffff169060200190929190505050610d33565b005b600260019054906101000a900460ff1681565b60046020528060005260406000206000915090505481565b60015481565b60008061048233611063565b151561048d57600080fd5b600260009054906101000a900460ff1615156104a857600080fd5b600560003373ffffffffffffffffffffffffffffffffffffffff1673ffffffffffffffffffffffffffffffffffffffff16815260200190815260200160002060009054906101000a900473ffffffffffffffffffffffffffffffffffffffff169150600460003373ffffffffffffffffffffffffffffffffffffffff1673ffffffffffffffffffffffffffffffffffffffff1681526020019081526020016000205490508173ffffffffffffffffffffffffffffffffffffffff1663a9059cbb33836040518363ffffffff167c0100000000000000000000000000000000000000000000000000000000028152600401808373ffffffffffffffffffffffffffffffffffffffff1673ffffffffffffffffffffffffffffffffffffffff16815260200182815260200192505050602060405180830381600087803b1580156105ef57600080fd5b505af1158015610603573d6000803e3d6000fd5b505050506040513d602081101561061957600080fd5b8101908080519060200190929190505050505050565b606060008060008060038054806020026020016040519081016040528092919081815260200182805480156106b957602002820191906000526020600020905b8160009054906101000a900473ffffffffffffffffffffffffffffffffffffffff1673ffffffffffffffffffffffffffffffffffffffff168152602001906001019080831161066f575b5050505050945060015493506000549250600260009054906101000a900460ff169150600260019054906101000a900460ff1690509091929394565b600260009054906101000a900460ff1681565b6060600380548060200260200160405190810160405280929190818152602001828054801561078c57602002820191906000526020600020905b8160009054906101000a900473ffffffffffffffffffffffffffffffffffffffff1673ffffffffffffffffffffffffffffffffffffffff1681526020019060010190808311610742575b5050505050905090565b60056020528060005260406000206000915054906101000a900473ffffffffffffffffffffffffffffffffffffffff1681565b426000541180156107e1575060038054905060015414155b15156107ec57600080fd5b6000600260016101000a81548160ff0219169083151502179055506001600260006101000a81548160ff021916908315150217905550565b60008061083033611063565b151561083b57600080fd5b60038054905060015414151561085057600080fd5b600260019054906101000a900460ff16151561086b57600080fd5b600460006003600081548110151561087f57fe5b9060005260206000200160009054906101000a900473ffffffffffffffffffffffffffffffffffffffff1673ffffffffffffffffffffffffffffffffffffffff1673ffffffffffffffffffffffffffffffffffffffff16815260200190815260200160002054915060046000600360018154811015156108fb57fe5b9060005260206000200160009054906101000a900473ffffffffffffffffffffffffffffffffffffffff1673ffffffffffffffffffffffffffffffffffffffff1673ffffffffffffffffffffffffffffffffffffffff16815260200190815260200160002054600460006003600081548110151561097557fe5b9060005260206000200160009054906101000a900473ffffffffffffffffffffffffffffffffffffffff1673ffffffffffffffffffffffffffffffffffffffff1673ffffffffffffffffffffffffffffffffffffffff168152602001908152602001600020819055508160046000600360018154811015156109f357fe5b9060005260206000200160009054906101000a900473ffffffffffffffffffffffffffffffffffffffff1673ffffffffffffffffffffffffffffffffffffffff1673ffffffffffffffffffffffffffffffffffffffff168152602001908152602001600020819055506005600060036000815481101515610a7057fe5b9060005260206000200160009054906101000a900473ffffffffffffffffffffffffffffffffffffffff1673ffffffffffffffffffffffffffffffffffffffff1673ffffffffffffffffffffffffffffffffffffffff16815260200190815260200160002060009054906101000a900473ffffffffffffffffffffffffffffffffffffffff1690506005600060036001815481101515610b0c57fe5b9060005260206000200160009054906101000a900473ffffffffffffffffffffffffffffffffffffffff1673ffffffffffffffffffffffffffffffffffffffff1673ffffffffffffffffffffffffffffffffffffffff16815260200190815260200160002060009054906101000a900473ffffffffffffffffffffffffffffffffffffffff166005600060036000815481101515610ba657fe5b9060005260206000200160009054906101000a900473ffffffffffffffffffffffffffffffffffffffff1673ffffffffffffffffffffffffffffffffffffffff1673ffffffffffffffffffffffffffffffffffffffff16815260200190815260200160002060006101000a81548173ffffffffffffffffffffffffffffffffffffffff021916908373ffffffffffffffffffffffffffffffffffffffff160217905550806005600060036001815481101515610c5e57fe5b9060005260206000200160009054906101000a900473ffffffffffffffffffffffffffffffffffffffff1673ffffffffffffffffffffffffffffffffffffffff1673ffffffffffffffffffffffffffffffffffffffff16815260200190815260200160002060006101000a81548173ffffffffffffffffffffffffffffffffffffffff021916908373ffffffffffffffffffffffffffffffffffffffff1602179055506001600260006101000a81548160ff0219169083151502179055505050565b6000600380549050905090565b60005481565b60008060008492508273ffffffffffffffffffffffffffffffffffffffff166370a08231856040518263ffffffff167c0100000000000000000000000000000000000000000000000000000000028152600401808273ffffffffffffffffffffffffffffffffffffffff1673ffffffffffffffffffffffffffffffffffffffff168152602001915050602060405180830381600087803b158015610dd657600080fd5b505af1158015610dea573d6000803e3d6000fd5b505050506040513d6020811015610e0057600080fd5b810190808051906020019092919050505091508273ffffffffffffffffffffffffffffffffffffffff166370a08231306040518263ffffffff167c0100000000000000000000000000000000000000000000000000000000028152600401808273ffffffffffffffffffffffffffffffffffffffff1673ffffffffffffffffffffffffffffffffffffffff168152602001915050602060405180830381600087803b158015610eae57600080fd5b505af1158015610ec2573d6000803e3d6000fd5b505050506040513d6020811015610ed857600080fd5b81019080805190602001909291905050509050610efe888861110690919063ffffffff16565b82141515610f0b57600080fd5b610f1e888761111f90919063ffffffff16565b81141515610f2b57600080fd5b610f7d88600460008773ffffffffffffffffffffffffffffffffffffffff1673ffffffffffffffffffffffffffffffffffffffff1681526020019081526020016000205461111f90919063ffffffff16565b600460008673ffffffffffffffffffffffffffffffffffffffff1673ffffffffffffffffffffffffffffffffffffffff1681526020019081526020016000208190555084600560008673ffffffffffffffffffffffffffffffffffffffff1673ffffffffffffffffffffffffffffffffffffffff16815260200190815260200160002060006101000a81548173ffffffffffffffffffffffffffffffffffffffff021916908373ffffffffffffffffffffffffffffffffffffffff1602179055506110536001805461111f90919063ffffffff16565b6001819055505050505050505050565b600080600090505b6003805490508110156110fb578273ffffffffffffffffffffffffffffffffffffffff1660038281548110151561109e57fe5b9060005260206000200160009054906101000a900473ffffffffffffffffffffffffffffffffffffffff1673ffffffffffffffffffffffffffffffffffffffff1614156110ee5760019150611100565b808060010191505061106b565b600091505b50919050565b600082821115151561111457fe5b818303905092915050565b6000818301905082811015151561113257fe5b809050929150505600a165627a7a723058206f128804794f5212fb15617b99ec67c7082115e2507fec58e15a89045ffa0bc30029a165627a7a723058202e128d2cc7bee2cbea25194a592d5d4873b7bdc74c03bef0ebc507088370a5130029",
  "source": "pragma solidity ^0.4.23;\n\nimport './ExchangeAgent.sol';\n\ncontract AgentFactory {\n\taddress[] agents;\n\n\tfunction createExchangeAgent(address[] _participants,\n\t\t\t\t\t\t\t\t uint256 _timeToExpire) \n\texternal {\n\t\taddress agent = new ExchangeAgent(_participants, _timeToExpire);\n\t\tagents.push(agent);\n\t}\n\n\tfunction getExchangeAgents() external view returns(address[]) {\n\t\treturn agents;\n\t}\n}\n",
  "sourcePath": "/Users/tomamajic/Desktop/Toma/Dev/otc-exchange/ethereum/contracts/AgentFactory.sol",
  "compiler": {
    "name": "solc",
    "version": "0.4.23+commit.124ca40d.Emscripten.clang"
  },
  "schemaVersion": "2.0.0",
  "updatedAt": "2018-08-17T10:54:40.738Z"
}