{
  "contractName": "ExchangeAgent",
  "abi": [
    {
      "constant": true,
      "inputs": [],
      "name": "finalizable",
      "outputs": [
        {
          "name": "",
          "type": "bool"
        }
      ],
      "payable": false,
      "stateMutability": "view",
      "type": "function"
    },
    {
      "constant": true,
      "inputs": [
        {
          "name": "",
          "type": "address"
        }
      ],
      "name": "balances",
      "outputs": [
        {
          "name": "",
          "type": "uint256"
        }
      ],
      "payable": false,
      "stateMutability": "view",
      "type": "function"
    },
    {
      "constant": true,
      "inputs": [],
      "name": "withdrawable",
      "outputs": [
        {
          "name": "",
          "type": "bool"
        }
      ],
      "payable": false,
      "stateMutability": "view",
      "type": "function"
    },
    {
      "constant": true,
      "inputs": [
        {
          "name": "",
          "type": "address"
        }
      ],
      "name": "participantToken",
      "outputs": [
        {
          "name": "",
          "type": "address"
        }
      ],
      "payable": false,
      "stateMutability": "view",
      "type": "function"
    },
    {
      "constant": true,
      "inputs": [
        {
          "name": "",
          "type": "address"
        }
      ],
      "name": "amountLeftToDeposit",
      "outputs": [
        {
          "name": "",
          "type": "uint256"
        }
      ],
      "payable": false,
      "stateMutability": "view",
      "type": "function"
    },
    {
      "constant": true,
      "inputs": [],
      "name": "expirationTime",
      "outputs": [
        {
          "name": "",
          "type": "uint256"
        }
      ],
      "payable": false,
      "stateMutability": "view",
      "type": "function"
    },
    {
      "inputs": [
        {
          "name": "_participants",
          "type": "address[]"
        },
        {
          "name": "_tokens",
          "type": "address[]"
        },
        {
          "name": "_promisedDeposits",
          "type": "uint256[]"
        },
        {
          "name": "_timeToExpire",
          "type": "uint256"
        }
      ],
      "payable": false,
      "stateMutability": "nonpayable",
      "type": "constructor"
    },
    {
      "constant": false,
      "inputs": [
        {
          "name": "_amount",
          "type": "uint256"
        },
        {
          "name": "_previousSenderBalance",
          "type": "uint256"
        },
        {
          "name": "_previousContractBalance",
          "type": "uint256"
        },
        {
          "name": "_sender",
          "type": "address"
        }
      ],
      "name": "depositSuccessfull",
      "outputs": [],
      "payable": false,
      "stateMutability": "nonpayable",
      "type": "function"
    },
    {
      "constant": false,
      "inputs": [],
      "name": "finalizeExchange",
      "outputs": [],
      "payable": false,
      "stateMutability": "nonpayable",
      "type": "function"
    },
    {
      "constant": false,
      "inputs": [],
      "name": "fraudPreventiveFinalize",
      "outputs": [],
      "payable": false,
      "stateMutability": "nonpayable",
      "type": "function"
    },
    {
      "constant": false,
      "inputs": [],
      "name": "withdraw",
      "outputs": [],
      "payable": false,
      "stateMutability": "nonpayable",
      "type": "function"
    },
    {
      "constant": true,
      "inputs": [],
      "name": "getParticipants",
      "outputs": [
        {
          "name": "",
          "type": "address[]"
        }
      ],
      "payable": false,
      "stateMutability": "view",
      "type": "function"
    },
    {
      "constant": true,
      "inputs": [],
      "name": "getSummary",
      "outputs": [
        {
          "name": "_participants",
          "type": "address[]"
        },
        {
          "name": "_firstToken",
          "type": "address"
        },
        {
          "name": "_secondToken",
          "type": "address"
        },
        {
          "name": "_amountsLeft",
          "type": "uint256[]"
        },
        {
          "name": "_expirationTime",
          "type": "uint256"
        },
        {
          "name": "_withdrawable",
          "type": "bool"
        },
        {
          "name": "_finalizable",
          "type": "bool"
        }
      ],
      "payable": false,
      "stateMutability": "view",
      "type": "function"
    }
  ],
  "bytecode": "0x60806040523480156200001157600080fd5b5060405162001c1138038062001c118339810180604052810190808051820192919060200180518201929190602001805182019291906020018051906020019092919050505080420160008190555083600290805190602001906200007892919062000304565b508260008151811015156200008957fe5b9060200190602002015160056000866000815181101515620000a757fe5b9060200190602002015173ffffffffffffffffffffffffffffffffffffffff1673ffffffffffffffffffffffffffffffffffffffff16815260200190815260200160002060006101000a81548173ffffffffffffffffffffffffffffffffffffffff021916908373ffffffffffffffffffffffffffffffffffffffff1602179055508260018151811015156200013957fe5b90602001906020020151600560008660018151811015156200015757fe5b9060200190602002015173ffffffffffffffffffffffffffffffffffffffff1673ffffffffffffffffffffffffffffffffffffffff16815260200190815260200160002060006101000a81548173ffffffffffffffffffffffffffffffffffffffff021916908373ffffffffffffffffffffffffffffffffffffffff160217905550816000815181101515620001e957fe5b90602001906020020151600360008660008151811015156200020757fe5b9060200190602002015173ffffffffffffffffffffffffffffffffffffffff1673ffffffffffffffffffffffffffffffffffffffff168152602001908152602001600020819055508160018151811015156200025f57fe5b90602001906020020151600360008660018151811015156200027d57fe5b9060200190602002015173ffffffffffffffffffffffffffffffffffffffff1673ffffffffffffffffffffffffffffffffffffffff168152602001908152602001600020819055506000600160006101000a81548160ff02191690831515021790555060006001806101000a81548160ff02191690831515021790555050505050620003d9565b82805482825590600052602060002090810192821562000380579160200282015b828111156200037f5782518260006101000a81548173ffffffffffffffffffffffffffffffffffffffff021916908373ffffffffffffffffffffffffffffffffffffffff1602179055509160200191906001019062000325565b5b5090506200038f919062000393565b5090565b620003d691905b80821115620003d257600081816101000a81549073ffffffffffffffffffffffffffffffffffffffff0219169055506001016200039a565b5090565b90565b61182880620003e96000396000f3006080604052600436106100ba576000357c0100000000000000000000000000000000000000000000000000000000900463ffffffff168063107e8456146100bf57806327e235e3146100ee5780633ccfd60b146101455780634051ddac1461015c57806350188301146102935780635aa68ac0146102c2578063604f91751461032e5780636b18eca8146103b15780637fc4fd5c146103c85780638975571a1461041f578063b8aede9c14610480578063da284dcc14610497575b600080fd5b3480156100cb57600080fd5b506100d46104c2565b604051808215151515815260200191505060405180910390f35b3480156100fa57600080fd5b5061012f600480360381019080803573ffffffffffffffffffffffffffffffffffffffff1690602001909291905050506104d4565b6040518082815260200191505060405180910390f35b34801561015157600080fd5b5061015a6104ec565b005b34801561016857600080fd5b506101716106a5565b60405180806020018873ffffffffffffffffffffffffffffffffffffffff1673ffffffffffffffffffffffffffffffffffffffff1681526020018773ffffffffffffffffffffffffffffffffffffffff1673ffffffffffffffffffffffffffffffffffffffff16815260200180602001868152602001851515151581526020018415151515815260200183810383528a818151815260200191508051906020019060200280838360005b8381101561023657808201518184015260208101905061021b565b50505050905001838103825287818151815260200191508051906020019060200280838360005b8381101561027857808201518184015260208101905061025d565b50505050905001995050505050505050505060405180910390f35b34801561029f57600080fd5b506102a8610a21565b604051808215151515815260200191505060405180910390f35b3480156102ce57600080fd5b506102d7610a34565b6040518080602001828103825283818151815260200191508051906020019060200280838360005b8381101561031a5780820151818401526020810190506102ff565b505050509050019250505060405180910390f35b34801561033a57600080fd5b5061036f600480360381019080803573ffffffffffffffffffffffffffffffffffffffff169060200190929190505050610ac2565b604051808273ffffffffffffffffffffffffffffffffffffffff1673ffffffffffffffffffffffffffffffffffffffff16815260200191505060405180910390f35b3480156103bd57600080fd5b506103c6610af5565b005b3480156103d457600080fd5b50610409600480360381019080803573ffffffffffffffffffffffffffffffffffffffff169060200190929190505050610b89565b6040518082815260200191505060405180910390f35b34801561042b57600080fd5b5061047e600480360381019080803590602001909291908035906020019092919080359060200190929190803573ffffffffffffffffffffffffffffffffffffffff169060200190929190505050610ba1565b005b34801561048c57600080fd5b50610495611007565b005b3480156104a357600080fd5b506104ac611616565b6040518082815260200191505060405180910390f35b6001809054906101000a900460ff1681565b60046020528060005260406000206000915090505481565b6000806104f83361161c565b151561050357600080fd5b600160009054906101000a900460ff16151561051e57600080fd5b600560003373ffffffffffffffffffffffffffffffffffffffff1673ffffffffffffffffffffffffffffffffffffffff16815260200190815260200160002060009054906101000a900473ffffffffffffffffffffffffffffffffffffffff169150600460003373ffffffffffffffffffffffffffffffffffffffff1673ffffffffffffffffffffffffffffffffffffffff1681526020019081526020016000205490508173ffffffffffffffffffffffffffffffffffffffff1663a9059cbb33836040518363ffffffff167c0100000000000000000000000000000000000000000000000000000000028152600401808373ffffffffffffffffffffffffffffffffffffffff1673ffffffffffffffffffffffffffffffffffffffff16815260200182815260200192505050602060405180830381600087803b15801561066557600080fd5b505af1158015610679573d6000803e3d6000fd5b505050506040513d602081101561068f57600080fd5b8101908080519060200190929190505050505050565b6060600080606060008060006060600280805490501415156106c657600080fd5b6002805490506040519080825280602002602001820160405280156106fa5781602001602082028038833980820191505090505b509050600360006002600081548110151561071157fe5b9060005260206000200160009054906101000a900473ffffffffffffffffffffffffffffffffffffffff1673ffffffffffffffffffffffffffffffffffffffff1673ffffffffffffffffffffffffffffffffffffffff1681526020019081526020016000205481600081518110151561078657fe5b906020019060200201818152505060036000600260018154811015156107a857fe5b9060005260206000200160009054906101000a900473ffffffffffffffffffffffffffffffffffffffff1673ffffffffffffffffffffffffffffffffffffffff1673ffffffffffffffffffffffffffffffffffffffff1681526020019081526020016000205481600181518110151561081d57fe5b906020019060200201818152505060028054806020026020016040519081016040528092919081815260200182805480156108ad57602002820191906000526020600020905b8160009054906101000a900473ffffffffffffffffffffffffffffffffffffffff1673ffffffffffffffffffffffffffffffffffffffff1681526020019060010190808311610863575b5050505050975060056000600260008154811015156108c857fe5b9060005260206000200160009054906101000a900473ffffffffffffffffffffffffffffffffffffffff1673ffffffffffffffffffffffffffffffffffffffff1673ffffffffffffffffffffffffffffffffffffffff16815260200190815260200160002060009054906101000a900473ffffffffffffffffffffffffffffffffffffffff169650600560006002600181548110151561096457fe5b9060005260206000200160009054906101000a900473ffffffffffffffffffffffffffffffffffffffff1673ffffffffffffffffffffffffffffffffffffffff1673ffffffffffffffffffffffffffffffffffffffff16815260200190815260200160002060009054906101000a900473ffffffffffffffffffffffffffffffffffffffff1695508094506000549350600160009054906101000a900460ff1692506001809054906101000a900460ff1691505090919293949596565b600160009054906101000a900460ff1681565b60606002805480602002602001604051908101604052809291908181526020018280548015610ab857602002820191906000526020600020905b8160009054906101000a900473ffffffffffffffffffffffffffffffffffffffff1673ffffffffffffffffffffffffffffffffffffffff1681526020019060010190808311610a6e575b5050505050905090565b60056020528060005260406000206000915054906101000a900473ffffffffffffffffffffffffffffffffffffffff1681565b42600054111515610b0557600080fd5b6000600360003373ffffffffffffffffffffffffffffffffffffffff1673ffffffffffffffffffffffffffffffffffffffff16815260200190815260200160002054141515610b5357600080fd5b60006001806101000a81548160ff02191690831515021790555060018060006101000a81548160ff021916908315150217905550565b60036020528060005260406000206000915090505481565b6000806000806000600360008773ffffffffffffffffffffffffffffffffffffffff1673ffffffffffffffffffffffffffffffffffffffff16815260200190815260200160002054111515610bf557600080fd5b6000610c4989600360008973ffffffffffffffffffffffffffffffffffffffff1673ffffffffffffffffffffffffffffffffffffffff168152602001908152602001600020546116bf90919063ffffffff16565b10151515610c5657600080fd5b600560008673ffffffffffffffffffffffffffffffffffffffff1673ffffffffffffffffffffffffffffffffffffffff16815260200190815260200160002060009054906101000a900473ffffffffffffffffffffffffffffffffffffffff1693508392508273ffffffffffffffffffffffffffffffffffffffff166370a08231866040518263ffffffff167c0100000000000000000000000000000000000000000000000000000000028152600401808273ffffffffffffffffffffffffffffffffffffffff1673ffffffffffffffffffffffffffffffffffffffff168152602001915050602060405180830381600087803b158015610d5657600080fd5b505af1158015610d6a573d6000803e3d6000fd5b505050506040513d6020811015610d8057600080fd5b810190808051906020019092919050505091508273ffffffffffffffffffffffffffffffffffffffff166370a08231306040518263ffffffff167c0100000000000000000000000000000000000000000000000000000000028152600401808273ffffffffffffffffffffffffffffffffffffffff1673ffffffffffffffffffffffffffffffffffffffff168152602001915050602060405180830381600087803b158015610e2e57600080fd5b505af1158015610e42573d6000803e3d6000fd5b505050506040513d6020811015610e5857600080fd5b81019080805190602001909291905050509050610e7e88886116bf90919063ffffffff16565b82141515610e8b57600080fd5b610e9e88876116d890919063ffffffff16565b81141515610eab57600080fd5b610efd88600460008873ffffffffffffffffffffffffffffffffffffffff1673ffffffffffffffffffffffffffffffffffffffff168152602001908152602001600020546116d890919063ffffffff16565b600460008773ffffffffffffffffffffffffffffffffffffffff1673ffffffffffffffffffffffffffffffffffffffff16815260200190815260200160002081905550610f9288600360008873ffffffffffffffffffffffffffffffffffffffff1673ffffffffffffffffffffffffffffffffffffffff168152602001908152602001600020546116bf90919063ffffffff16565b600360008773ffffffffffffffffffffffffffffffffffffffff1673ffffffffffffffffffffffffffffffffffffffff16815260200190815260200160002081905550610fdd6116f4565b15610ffd5760018060016101000a81548160ff0219169083151502179055505b5050505050505050565b6000806110133361161c565b151561101e57600080fd5b6000600360006002600081548110151561103457fe5b9060005260206000200160009054906101000a900473ffffffffffffffffffffffffffffffffffffffff1673ffffffffffffffffffffffffffffffffffffffff1673ffffffffffffffffffffffffffffffffffffffff168152602001908152602001600020541415156110a657600080fd5b600060036000600260018154811015156110bc57fe5b9060005260206000200160009054906101000a900473ffffffffffffffffffffffffffffffffffffffff1673ffffffffffffffffffffffffffffffffffffffff1673ffffffffffffffffffffffffffffffffffffffff1681526020019081526020016000205414151561112e57600080fd5b6001809054906101000a900460ff16151561114857600080fd5b600460006002600081548110151561115c57fe5b9060005260206000200160009054906101000a900473ffffffffffffffffffffffffffffffffffffffff1673ffffffffffffffffffffffffffffffffffffffff1673ffffffffffffffffffffffffffffffffffffffff16815260200190815260200160002054915060046000600260018154811015156111d857fe5b9060005260206000200160009054906101000a900473ffffffffffffffffffffffffffffffffffffffff1673ffffffffffffffffffffffffffffffffffffffff1673ffffffffffffffffffffffffffffffffffffffff16815260200190815260200160002054600460006002600081548110151561125257fe5b9060005260206000200160009054906101000a900473ffffffffffffffffffffffffffffffffffffffff1673ffffffffffffffffffffffffffffffffffffffff1673ffffffffffffffffffffffffffffffffffffffff168152602001908152602001600020819055508160046000600260018154811015156112d057fe5b9060005260206000200160009054906101000a900473ffffffffffffffffffffffffffffffffffffffff1673ffffffffffffffffffffffffffffffffffffffff1673ffffffffffffffffffffffffffffffffffffffff16815260200190815260200160002081905550600560006002600081548110151561134d57fe5b9060005260206000200160009054906101000a900473ffffffffffffffffffffffffffffffffffffffff1673ffffffffffffffffffffffffffffffffffffffff1673ffffffffffffffffffffffffffffffffffffffff16815260200190815260200160002060009054906101000a900473ffffffffffffffffffffffffffffffffffffffff16905060056000600260018154811015156113e957fe5b9060005260206000200160009054906101000a900473ffffffffffffffffffffffffffffffffffffffff1673ffffffffffffffffffffffffffffffffffffffff1673ffffffffffffffffffffffffffffffffffffffff16815260200190815260200160002060009054906101000a900473ffffffffffffffffffffffffffffffffffffffff16600560006002600081548110151561148357fe5b9060005260206000200160009054906101000a900473ffffffffffffffffffffffffffffffffffffffff1673ffffffffffffffffffffffffffffffffffffffff1673ffffffffffffffffffffffffffffffffffffffff16815260200190815260200160002060006101000a81548173ffffffffffffffffffffffffffffffffffffffff021916908373ffffffffffffffffffffffffffffffffffffffff16021790555080600560006002600181548110151561153b57fe5b9060005260206000200160009054906101000a900473ffffffffffffffffffffffffffffffffffffffff1673ffffffffffffffffffffffffffffffffffffffff1673ffffffffffffffffffffffffffffffffffffffff16815260200190815260200160002060006101000a81548173ffffffffffffffffffffffffffffffffffffffff021916908373ffffffffffffffffffffffffffffffffffffffff16021790555060006001806101000a81548160ff02191690831515021790555060018060006101000a81548160ff0219169083151502179055505050565b60005481565b600080600090505b6002805490508110156116b4578273ffffffffffffffffffffffffffffffffffffffff1660028281548110151561165757fe5b9060005260206000200160009054906101000a900473ffffffffffffffffffffffffffffffffffffffff1673ffffffffffffffffffffffffffffffffffffffff1614156116a757600191506116b9565b8080600101915050611624565b600091505b50919050565b60008282111515156116cd57fe5b818303905092915050565b600081830190508281101515156116eb57fe5b80905092915050565b600080600360006002600081548110151561170b57fe5b9060005260206000200160009054906101000a900473ffffffffffffffffffffffffffffffffffffffff1673ffffffffffffffffffffffffffffffffffffffff1673ffffffffffffffffffffffffffffffffffffffff168152602001908152602001600020541480156117f757506000600360006002600181548110151561178f57fe5b9060005260206000200160009054906101000a900473ffffffffffffffffffffffffffffffffffffffff1673ffffffffffffffffffffffffffffffffffffffff1673ffffffffffffffffffffffffffffffffffffffff16815260200190815260200160002054145b9050905600a165627a7a72305820f7ff9beccf4dd440dc08aed7a8a5dc265a806f5a5bfc951ebf786bf8d58e23710029",
  "source": "pragma solidity ^0.4.23;\n\nimport '../../node_modules/openzeppelin-solidity/contracts/token/ERC20/ERC20.sol';\nimport '../../node_modules/openzeppelin-solidity/contracts/math/SafeMath.sol';\n\ncontract ExchangeAgent {\n\tusing SafeMath for uint256;\n\n\tuint256 public expirationTime;\n\tbool public withdrawable;\n\tbool public finalizable;\n\n\taddress[] participants;\n\n\tmapping(address => uint256) public amountLeftToDeposit;\n\tmapping(address => uint256) public balances;\n\tmapping(address => address) public participantToken;\n\n\tconstructor(address[] _participants,\n\t\t\t\taddress[] _tokens,\n\t\t\t\tuint256[] _promisedDeposits,\n\t\t\t\tuint256 _timeToExpire) \n\tpublic {\n\t\texpirationTime = now + _timeToExpire;\n\t\tparticipants = _participants;\n\t\tparticipantToken[_participants[0]] = _tokens[0];\n\t\tparticipantToken[_participants[1]] = _tokens[1];\n\t\tamountLeftToDeposit[_participants[0]] = _promisedDeposits[0];\n\t\tamountLeftToDeposit[_participants[1]] = _promisedDeposits[1];\n\t\twithdrawable = false;\n\t\tfinalizable = false;\n\t}\n\n\tfunction depositSuccessfull(uint256 _amount,\n\t\t\t\t\t\t\t\tuint256 _previousSenderBalance, \n\t\t\t\t\t\t\t\tuint256 _previousContractBalance,\n\t\t\t\t\t\t\t\taddress _sender) \n\texternal {\n\t\trequire(amountLeftToDeposit[_sender] > 0);\n\t\trequire(amountLeftToDeposit[_sender].sub(_amount) >= 0);\n\n\t\taddress tokenAddress = participantToken[_sender];\n\t\tERC20 token = ERC20(tokenAddress);\n\t\tuint256 senderBalance = token.balanceOf(_sender);\n\t\tuint256 myBalance = token.balanceOf(address(this));\n\n\t\trequire(senderBalance == _previousSenderBalance.sub(_amount));\n\t\trequire(myBalance == _previousContractBalance.add(_amount));\n\n\t\tbalances[_sender] = balances[_sender].add(_amount);\n\t\tamountLeftToDeposit[_sender] = amountLeftToDeposit[_sender].sub(_amount);\n\n\t\tif(_depositsMade()) {\n\t\t\tfinalizable = true;\n\t\t}\n\t}\n\n\tfunction finalizeExchange() external onlyParticipants {\n\t\trequire(amountLeftToDeposit[participants[0]] == 0);\n\t\trequire(amountLeftToDeposit[participants[1]] == 0);\n\t\trequire(finalizable);\n\n\t\tuint256 balance = balances[participants[0]];\n\t\tbalances[participants[0]] = balances[participants[1]];\n\t\tbalances[participants[1]] = balance;\n\n\t\taddress tokenAddress = participantToken[participants[0]];\n\t\tparticipantToken[participants[0]] = participantToken[participants[1]];\n\t\tparticipantToken[participants[1]] = tokenAddress;\n\n\t\tfinalizable = false;\n\t\twithdrawable = true;\n\t}\n\n\tfunction fraudPreventiveFinalize() external {\n\t\trequire(expirationTime > now);\n\t\trequire(amountLeftToDeposit[msg.sender] == 0);\n\n\t\tfinalizable = false;\n\t\twithdrawable = true;\n\t}\n\n\tfunction withdraw() external onlyParticipants {\n\t\trequire(withdrawable);\n\n\t\tERC20 token = ERC20(participantToken[msg.sender]);\n\t\tuint256 amount = balances[msg.sender];\n\n\t\ttoken.transfer(msg.sender, amount);\n\t}\n\n\tfunction getParticipants() external view returns(address[]) {\n\t\treturn participants;\n\t}\n\n\tfunction getSummary() external view returns(address[] _participants,\n\t\t\t\t\t\t\t\t\t\t\t\taddress _firstToken,\n\t\t\t\t\t\t\t\t\t\t\t\taddress _secondToken,\n\t\t\t\t\t\t\t\t\t\t\t\tuint256[] _amountsLeft,\n\t\t\t\t\t\t\t\t\t\t\t\tuint256 _expirationTime,\n\t\t\t\t\t\t\t\t\t\t\t\tbool _withdrawable, \n\t\t\t\t\t\t\t\t\t\t\t\tbool _finalizable)\n\t{\t\n\t\trequire(participants.length == 2);\n\n\t\tuint256[] memory amountsLeft = new uint256[](participants.length);\n\t\tamountsLeft[0] = amountLeftToDeposit[participants[0]];\n\t\tamountsLeft[1] = amountLeftToDeposit[participants[1]];   \n\n\t\t_participants = participants;\n\t\t_firstToken = participantToken[participants[0]];\n\t\t_secondToken = participantToken[participants[1]];\n\t\t_amountsLeft = amountsLeft;\n\t\t_expirationTime = expirationTime;\n\t\t_withdrawable = withdrawable;\n\t\t_finalizable = finalizable;\n\t}\n\n\tfunction _depositsMade() private view returns(bool) {\n\t\treturn ((amountLeftToDeposit[participants[0]] == 0) && (amountLeftToDeposit[participants[1]] == 0));\n\t}\n\n\tfunction _isParticipant(address _user) private view returns(bool) {\n\t\tfor(uint256 i = 0; i < participants.length; i++) {\n\t\t\tif(participants[i] == _user) {\n\t\t\t\treturn true;\n\t\t\t}\n\t\t}\n\n\t\treturn false;\n\t}\n\n\tmodifier onlyParticipants {\n\t\trequire(_isParticipant(msg.sender));\n\t\t_;\n\t}\n}",
  "sourcePath": "/Users/tomamajic/Desktop/Toma/Dev/otc-exchange/ethereum/contracts/ExchangeAgent.sol",
  "compiler": {
    "name": "solc",
    "version": "0.4.23+commit.124ca40d.Emscripten.clang"
  },
  "schemaVersion": "2.0.0",
  "updatedAt": "2018-08-23T07:10:46.126Z"
}