{
  "contractName": "ExchangeAgent",
  "abi": [
    {
      "constant": true,
      "inputs": [],
      "name": "finalizable",
      "outputs": [
        {
          "name": "",
          "type": "bool"
        }
      ],
      "payable": false,
      "stateMutability": "view",
      "type": "function"
    },
    {
      "constant": true,
      "inputs": [
        {
          "name": "",
          "type": "address"
        }
      ],
      "name": "balances",
      "outputs": [
        {
          "name": "",
          "type": "uint256"
        }
      ],
      "payable": false,
      "stateMutability": "view",
      "type": "function"
    },
    {
      "constant": true,
      "inputs": [],
      "name": "depositCount",
      "outputs": [
        {
          "name": "",
          "type": "uint256"
        }
      ],
      "payable": false,
      "stateMutability": "view",
      "type": "function"
    },
    {
      "constant": true,
      "inputs": [],
      "name": "withdrawable",
      "outputs": [
        {
          "name": "",
          "type": "bool"
        }
      ],
      "payable": false,
      "stateMutability": "view",
      "type": "function"
    },
    {
      "constant": true,
      "inputs": [
        {
          "name": "",
          "type": "address"
        }
      ],
      "name": "participantToken",
      "outputs": [
        {
          "name": "",
          "type": "address"
        }
      ],
      "payable": false,
      "stateMutability": "view",
      "type": "function"
    },
    {
      "constant": true,
      "inputs": [],
      "name": "expirationTime",
      "outputs": [
        {
          "name": "",
          "type": "uint256"
        }
      ],
      "payable": false,
      "stateMutability": "view",
      "type": "function"
    },
    {
      "inputs": [
        {
          "name": "_participants",
          "type": "address[]"
        },
        {
          "name": "_timeToExpire",
          "type": "uint256"
        }
      ],
      "payable": false,
      "stateMutability": "nonpayable",
      "type": "constructor"
    },
    {
      "constant": false,
      "inputs": [
        {
          "name": "_amount",
          "type": "uint256"
        },
        {
          "name": "_previousSenderBalance",
          "type": "uint256"
        },
        {
          "name": "_previousContractBalance",
          "type": "uint256"
        },
        {
          "name": "_tokenAddress",
          "type": "address"
        },
        {
          "name": "_sender",
          "type": "address"
        }
      ],
      "name": "depositSuccessfull",
      "outputs": [],
      "payable": false,
      "stateMutability": "nonpayable",
      "type": "function"
    },
    {
      "constant": false,
      "inputs": [],
      "name": "finalizeExchange",
      "outputs": [],
      "payable": false,
      "stateMutability": "nonpayable",
      "type": "function"
    },
    {
      "constant": false,
      "inputs": [],
      "name": "fraudPreventiveFinalize",
      "outputs": [],
      "payable": false,
      "stateMutability": "nonpayable",
      "type": "function"
    },
    {
      "constant": false,
      "inputs": [],
      "name": "withdraw",
      "outputs": [],
      "payable": false,
      "stateMutability": "nonpayable",
      "type": "function"
    },
    {
      "constant": true,
      "inputs": [],
      "name": "getParticipants",
      "outputs": [
        {
          "name": "",
          "type": "address[]"
        }
      ],
      "payable": false,
      "stateMutability": "view",
      "type": "function"
    },
    {
      "constant": true,
      "inputs": [],
      "name": "getParticipantsCount",
      "outputs": [
        {
          "name": "",
          "type": "uint256"
        }
      ],
      "payable": false,
      "stateMutability": "view",
      "type": "function"
    }
  ],
  "bytecode": "0x608060405234801561001057600080fd5b5060405161117f38038061117f8339810180604052810190808051820192919060200180519060200190929190505050804201600081905550816003908051906020019061005f92919061009d565b506000600260006101000a81548160ff0219169083151502179055506001600260016101000a81548160ff021916908315150217905550505061016a565b828054828255906000526020600020908101928215610116579160200282015b828111156101155782518260006101000a81548173ffffffffffffffffffffffffffffffffffffffff021916908373ffffffffffffffffffffffffffffffffffffffff160217905550916020019190600101906100bd565b5b5090506101239190610127565b5090565b61016791905b8082111561016357600081816101000a81549073ffffffffffffffffffffffffffffffffffffffff02191690555060010161012d565b5090565b90565b611006806101796000396000f3006080604052600436106100ba576000357c0100000000000000000000000000000000000000000000000000000000900463ffffffff168063107e8456146100bf57806327e235e3146100ee5780632dfdf0b5146101455780633ccfd60b1461017057806350188301146101875780635aa68ac0146101b6578063604f9175146102225780636b18eca8146102a5578063b8aede9c146102bc578063cabfaa18146102d3578063da284dcc146102fe578063ea27416d14610329575b600080fd5b3480156100cb57600080fd5b506100d46103aa565b604051808215151515815260200191505060405180910390f35b3480156100fa57600080fd5b5061012f600480360381019080803573ffffffffffffffffffffffffffffffffffffffff1690602001909291905050506103bd565b6040518082815260200191505060405180910390f35b34801561015157600080fd5b5061015a6103d5565b6040518082815260200191505060405180910390f35b34801561017c57600080fd5b506101856103db565b005b34801561019357600080fd5b5061019c610594565b604051808215151515815260200191505060405180910390f35b3480156101c257600080fd5b506101cb6105a7565b6040518080602001828103825283818151815260200191508051906020019060200280838360005b8381101561020e5780820151818401526020810190506101f3565b505050509050019250505060405180910390f35b34801561022e57600080fd5b50610263600480360381019080803573ffffffffffffffffffffffffffffffffffffffff169060200190929190505050610635565b604051808273ffffffffffffffffffffffffffffffffffffffff1673ffffffffffffffffffffffffffffffffffffffff16815260200191505060405180910390f35b3480156102b157600080fd5b506102ba610668565b005b3480156102c857600080fd5b506102d16106c3565b005b3480156102df57600080fd5b506102e8610bbf565b6040518082815260200191505060405180910390f35b34801561030a57600080fd5b50610313610bcc565b6040518082815260200191505060405180910390f35b34801561033557600080fd5b506103a8600480360381019080803590602001909291908035906020019092919080359060200190929190803573ffffffffffffffffffffffffffffffffffffffff169060200190929190803573ffffffffffffffffffffffffffffffffffffffff169060200190929190505050610bd2565b005b600260019054906101000a900460ff1681565b60046020528060005260406000206000915090505481565b60015481565b6000806103e733610f02565b15156103f257600080fd5b600260009054906101000a900460ff16151561040d57600080fd5b600560003373ffffffffffffffffffffffffffffffffffffffff1673ffffffffffffffffffffffffffffffffffffffff16815260200190815260200160002060009054906101000a900473ffffffffffffffffffffffffffffffffffffffff169150600460003373ffffffffffffffffffffffffffffffffffffffff1673ffffffffffffffffffffffffffffffffffffffff1681526020019081526020016000205490508173ffffffffffffffffffffffffffffffffffffffff1663a9059cbb33836040518363ffffffff167c0100000000000000000000000000000000000000000000000000000000028152600401808373ffffffffffffffffffffffffffffffffffffffff1673ffffffffffffffffffffffffffffffffffffffff16815260200182815260200192505050602060405180830381600087803b15801561055457600080fd5b505af1158015610568573d6000803e3d6000fd5b505050506040513d602081101561057e57600080fd5b8101908080519060200190929190505050505050565b600260009054906101000a900460ff1681565b6060600380548060200260200160405190810160405280929190818152602001828054801561062b57602002820191906000526020600020905b8160009054906101000a900473ffffffffffffffffffffffffffffffffffffffff1673ffffffffffffffffffffffffffffffffffffffff16815260200190600101908083116105e1575b5050505050905090565b60056020528060005260406000206000915054906101000a900473ffffffffffffffffffffffffffffffffffffffff1681565b42600054118015610680575060038054905060015414155b151561068b57600080fd5b6000600260016101000a81548160ff0219169083151502179055506001600260006101000a81548160ff021916908315150217905550565b6000806106cf33610f02565b15156106da57600080fd5b6003805490506001541415156106ef57600080fd5b600260019054906101000a900460ff16151561070a57600080fd5b600460006003600081548110151561071e57fe5b9060005260206000200160009054906101000a900473ffffffffffffffffffffffffffffffffffffffff1673ffffffffffffffffffffffffffffffffffffffff1673ffffffffffffffffffffffffffffffffffffffff168152602001908152602001600020549150600460006003600181548110151561079a57fe5b9060005260206000200160009054906101000a900473ffffffffffffffffffffffffffffffffffffffff1673ffffffffffffffffffffffffffffffffffffffff1673ffffffffffffffffffffffffffffffffffffffff16815260200190815260200160002054600460006003600081548110151561081457fe5b9060005260206000200160009054906101000a900473ffffffffffffffffffffffffffffffffffffffff1673ffffffffffffffffffffffffffffffffffffffff1673ffffffffffffffffffffffffffffffffffffffff1681526020019081526020016000208190555081600460006003600181548110151561089257fe5b9060005260206000200160009054906101000a900473ffffffffffffffffffffffffffffffffffffffff1673ffffffffffffffffffffffffffffffffffffffff1673ffffffffffffffffffffffffffffffffffffffff16815260200190815260200160002081905550600560006003600081548110151561090f57fe5b9060005260206000200160009054906101000a900473ffffffffffffffffffffffffffffffffffffffff1673ffffffffffffffffffffffffffffffffffffffff1673ffffffffffffffffffffffffffffffffffffffff16815260200190815260200160002060009054906101000a900473ffffffffffffffffffffffffffffffffffffffff16905060056000600360018154811015156109ab57fe5b9060005260206000200160009054906101000a900473ffffffffffffffffffffffffffffffffffffffff1673ffffffffffffffffffffffffffffffffffffffff1673ffffffffffffffffffffffffffffffffffffffff16815260200190815260200160002060009054906101000a900473ffffffffffffffffffffffffffffffffffffffff166005600060036000815481101515610a4557fe5b9060005260206000200160009054906101000a900473ffffffffffffffffffffffffffffffffffffffff1673ffffffffffffffffffffffffffffffffffffffff1673ffffffffffffffffffffffffffffffffffffffff16815260200190815260200160002060006101000a81548173ffffffffffffffffffffffffffffffffffffffff021916908373ffffffffffffffffffffffffffffffffffffffff160217905550806005600060036001815481101515610afd57fe5b9060005260206000200160009054906101000a900473ffffffffffffffffffffffffffffffffffffffff1673ffffffffffffffffffffffffffffffffffffffff1673ffffffffffffffffffffffffffffffffffffffff16815260200190815260200160002060006101000a81548173ffffffffffffffffffffffffffffffffffffffff021916908373ffffffffffffffffffffffffffffffffffffffff1602179055506001600260006101000a81548160ff0219169083151502179055505050565b6000600380549050905090565b60005481565b60008060008492508273ffffffffffffffffffffffffffffffffffffffff166370a08231856040518263ffffffff167c0100000000000000000000000000000000000000000000000000000000028152600401808273ffffffffffffffffffffffffffffffffffffffff1673ffffffffffffffffffffffffffffffffffffffff168152602001915050602060405180830381600087803b158015610c7557600080fd5b505af1158015610c89573d6000803e3d6000fd5b505050506040513d6020811015610c9f57600080fd5b810190808051906020019092919050505091508273ffffffffffffffffffffffffffffffffffffffff166370a08231306040518263ffffffff167c0100000000000000000000000000000000000000000000000000000000028152600401808273ffffffffffffffffffffffffffffffffffffffff1673ffffffffffffffffffffffffffffffffffffffff168152602001915050602060405180830381600087803b158015610d4d57600080fd5b505af1158015610d61573d6000803e3d6000fd5b505050506040513d6020811015610d7757600080fd5b81019080805190602001909291905050509050610d9d8888610fa590919063ffffffff16565b82141515610daa57600080fd5b610dbd8887610fbe90919063ffffffff16565b81141515610dca57600080fd5b610e1c88600460008773ffffffffffffffffffffffffffffffffffffffff1673ffffffffffffffffffffffffffffffffffffffff16815260200190815260200160002054610fbe90919063ffffffff16565b600460008673ffffffffffffffffffffffffffffffffffffffff1673ffffffffffffffffffffffffffffffffffffffff1681526020019081526020016000208190555084600560008673ffffffffffffffffffffffffffffffffffffffff1673ffffffffffffffffffffffffffffffffffffffff16815260200190815260200160002060006101000a81548173ffffffffffffffffffffffffffffffffffffffff021916908373ffffffffffffffffffffffffffffffffffffffff160217905550610ef260018054610fbe90919063ffffffff16565b6001819055505050505050505050565b600080600090505b600380549050811015610f9a578273ffffffffffffffffffffffffffffffffffffffff16600382815481101515610f3d57fe5b9060005260206000200160009054906101000a900473ffffffffffffffffffffffffffffffffffffffff1673ffffffffffffffffffffffffffffffffffffffff161415610f8d5760019150610f9f565b8080600101915050610f0a565b600091505b50919050565b6000828211151515610fb357fe5b818303905092915050565b60008183019050828110151515610fd157fe5b809050929150505600a165627a7a723058207d1c1e4ec8e55697af90cc66b76bdb3be6c39d173f9a1a1fbd1d611775f742de0029",
  "source": "pragma solidity ^0.4.23;\n\nimport '../../node_modules/openzeppelin-solidity/contracts/token/ERC20/ERC20.sol';\nimport '../../node_modules/openzeppelin-solidity/contracts/math/SafeMath.sol';\n\ncontract ExchangeAgent {\n\tusing SafeMath for uint256;\n\n\tuint256 public expirationTime;\n\tuint256 public depositCount;\n\tbool public withdrawable;\n\tbool public finalizable;\n\n\taddress[] participants;\n\n\tmapping(address => uint256) public balances;\n\tmapping(address => address) public participantToken;\n\n\tconstructor(address[] _participants,\n\t\t\t\tuint256 _timeToExpire) \n\tpublic {\n\t\texpirationTime = now + _timeToExpire;\n\t\tparticipants = _participants;\n\t\twithdrawable = false;\n\t\tfinalizable = true;\n\t}\n\n\tfunction depositSuccessfull(uint256 _amount,\n\t\t\t\t\t\t\t\tuint256 _previousSenderBalance, \n\t\t\t\t\t\t\t\tuint256 _previousContractBalance,\n\t\t\t\t\t\t\t\taddress _tokenAddress,\n\t\t\t\t\t\t\t\taddress _sender) \n\texternal {\n\t\tERC20 token = ERC20(_tokenAddress);\n\t\tuint256 senderBalance = token.balanceOf(_sender);\n\t\tuint256 myBalance = token.balanceOf(address(this));\n\n\t\trequire(senderBalance == _previousSenderBalance.sub(_amount));\n\t\trequire(myBalance == _previousContractBalance.add(_amount));\n\n\t\tbalances[_sender] = balances[_sender].add(_amount);\n\t\tparticipantToken[_sender] = _tokenAddress;\n\t\tdepositCount = depositCount.add(1);\n\t}\n\n\tfunction finalizeExchange() external onlyParticipants {\n\t\trequire(depositCount == participants.length);\n\t\trequire(finalizable);\n\n\t\tuint256 balance = balances[participants[0]];\n\t\tbalances[participants[0]] = balances[participants[1]];\n\t\tbalances[participants[1]] = balance;\n\n\t\taddress tokenAddress = participantToken[participants[0]];\n\t\tparticipantToken[participants[0]] = participantToken[participants[1]];\n\t\tparticipantToken[participants[1]] = tokenAddress;\n\n\t\twithdrawable = true;\n\t}\n\n\tfunction fraudPreventiveFinalize() external {\n\t\trequire(expirationTime > now && depositCount != participants.length);\n\n\t\tfinalizable = false;\n\t\twithdrawable = true;\n\t}\n\n\tfunction withdraw() external onlyParticipants {\n\t\trequire(withdrawable);\n\n\t\tERC20 token = ERC20(participantToken[msg.sender]);\n\t\tuint256 amount = balances[msg.sender];\n\n\t\ttoken.transfer(msg.sender, amount);\n\t}\n\n\tfunction getParticipants() external view returns(address[]) {\n\t\treturn participants;\n\t}\n\n\tfunction getParticipantsCount() external view returns(uint256) {\n\t\treturn participants.length;\n\t}\n\n\tfunction _isParticipant(address _user) private view returns(bool) {\n\t\tfor(uint256 i = 0; i < participants.length; i++) {\n\t\t\tif(participants[i] == _user) {\n\t\t\t\treturn true;\n\t\t\t}\n\t\t}\n\n\t\treturn false;\n\t}\n\n\tmodifier onlyParticipants {\n\t\trequire(_isParticipant(msg.sender));\n\t\t_;\n\t}\n}",
  "sourcePath": "/Users/tomamajic/Desktop/Toma/Dev/otc-exchange/ethereum/contracts/ExchangeAgent.sol",
  "compiler": {
    "name": "solc",
    "version": "0.4.23+commit.124ca40d.Emscripten.clang"
  },
  "schemaVersion": "2.0.0",
  "updatedAt": "2018-08-08T10:24:12.773Z"
}