{
  "contractName": "ExchangeAgent",
  "abi": [
    {
      "constant": true,
      "inputs": [],
      "name": "finalizable",
      "outputs": [
        {
          "name": "",
          "type": "bool"
        }
      ],
      "payable": false,
      "stateMutability": "view",
      "type": "function"
    },
    {
      "constant": true,
      "inputs": [
        {
          "name": "",
          "type": "address"
        }
      ],
      "name": "balances",
      "outputs": [
        {
          "name": "",
          "type": "uint256"
        }
      ],
      "payable": false,
      "stateMutability": "view",
      "type": "function"
    },
    {
      "constant": true,
      "inputs": [],
      "name": "depositCount",
      "outputs": [
        {
          "name": "",
          "type": "uint256"
        }
      ],
      "payable": false,
      "stateMutability": "view",
      "type": "function"
    },
    {
      "constant": true,
      "inputs": [],
      "name": "withdrawable",
      "outputs": [
        {
          "name": "",
          "type": "bool"
        }
      ],
      "payable": false,
      "stateMutability": "view",
      "type": "function"
    },
    {
      "constant": true,
      "inputs": [
        {
          "name": "",
          "type": "address"
        }
      ],
      "name": "participantToken",
      "outputs": [
        {
          "name": "",
          "type": "address"
        }
      ],
      "payable": false,
      "stateMutability": "view",
      "type": "function"
    },
    {
      "constant": true,
      "inputs": [],
      "name": "expirationTime",
      "outputs": [
        {
          "name": "",
          "type": "uint256"
        }
      ],
      "payable": false,
      "stateMutability": "view",
      "type": "function"
    },
    {
      "inputs": [
        {
          "name": "_participants",
          "type": "address[]"
        },
        {
          "name": "_tokens",
          "type": "address[]"
        },
        {
          "name": "_timeToExpire",
          "type": "uint256"
        }
      ],
      "payable": false,
      "stateMutability": "nonpayable",
      "type": "constructor"
    },
    {
      "constant": false,
      "inputs": [
        {
          "name": "_amount",
          "type": "uint256"
        },
        {
          "name": "_previousSenderBalance",
          "type": "uint256"
        },
        {
          "name": "_previousContractBalance",
          "type": "uint256"
        },
        {
          "name": "_sender",
          "type": "address"
        }
      ],
      "name": "depositSuccessfull",
      "outputs": [],
      "payable": false,
      "stateMutability": "nonpayable",
      "type": "function"
    },
    {
      "constant": false,
      "inputs": [],
      "name": "finalizeExchange",
      "outputs": [],
      "payable": false,
      "stateMutability": "nonpayable",
      "type": "function"
    },
    {
      "constant": false,
      "inputs": [],
      "name": "fraudPreventiveFinalize",
      "outputs": [],
      "payable": false,
      "stateMutability": "nonpayable",
      "type": "function"
    },
    {
      "constant": false,
      "inputs": [],
      "name": "withdraw",
      "outputs": [],
      "payable": false,
      "stateMutability": "nonpayable",
      "type": "function"
    },
    {
      "constant": true,
      "inputs": [],
      "name": "getParticipants",
      "outputs": [
        {
          "name": "",
          "type": "address[]"
        }
      ],
      "payable": false,
      "stateMutability": "view",
      "type": "function"
    },
    {
      "constant": true,
      "inputs": [],
      "name": "getParticipantsCount",
      "outputs": [
        {
          "name": "",
          "type": "uint256"
        }
      ],
      "payable": false,
      "stateMutability": "view",
      "type": "function"
    },
    {
      "constant": true,
      "inputs": [],
      "name": "getSummary",
      "outputs": [
        {
          "name": "_participants",
          "type": "address[]"
        },
        {
          "name": "_firstToken",
          "type": "address"
        },
        {
          "name": "_secondToken",
          "type": "address"
        },
        {
          "name": "_depositCount",
          "type": "uint256"
        },
        {
          "name": "_expirationTime",
          "type": "uint256"
        },
        {
          "name": "_withdrawable",
          "type": "bool"
        },
        {
          "name": "_finalizable",
          "type": "bool"
        }
      ],
      "payable": false,
      "stateMutability": "view",
      "type": "function"
    }
  ],
  "bytecode": "0x60806040523480156200001157600080fd5b50604051620015d6380380620015d683398101806040528101908080518201929190602001805182019291906020018051906020019092919050505080420160008190555082600390805190602001906200006e9291906200020e565b508160008151811015156200007f57fe5b90602001906020020151600560008560008151811015156200009d57fe5b9060200190602002015173ffffffffffffffffffffffffffffffffffffffff1673ffffffffffffffffffffffffffffffffffffffff16815260200190815260200160002060006101000a81548173ffffffffffffffffffffffffffffffffffffffff021916908373ffffffffffffffffffffffffffffffffffffffff1602179055508160018151811015156200012f57fe5b90602001906020020151600560008560018151811015156200014d57fe5b9060200190602002015173ffffffffffffffffffffffffffffffffffffffff1673ffffffffffffffffffffffffffffffffffffffff16815260200190815260200160002060006101000a81548173ffffffffffffffffffffffffffffffffffffffff021916908373ffffffffffffffffffffffffffffffffffffffff1602179055506000600260006101000a81548160ff0219169083151502179055506001600260016101000a81548160ff021916908315150217905550505050620002e3565b8280548282559060005260206000209081019282156200028a579160200282015b82811115620002895782518260006101000a81548173ffffffffffffffffffffffffffffffffffffffff021916908373ffffffffffffffffffffffffffffffffffffffff160217905550916020019190600101906200022f565b5b5090506200029991906200029d565b5090565b620002e091905b80821115620002dc57600081816101000a81549073ffffffffffffffffffffffffffffffffffffffff021916905550600101620002a4565b5090565b90565b6112e380620002f36000396000f3006080604052600436106100c5576000357c0100000000000000000000000000000000000000000000000000000000900463ffffffff168063107e8456146100ca57806327e235e3146100f95780632dfdf0b5146101505780633ccfd60b1461017b5780634051ddac1461019257806350188301146102885780635aa68ac0146102b7578063604f9175146103235780636b18eca8146103a65780638975571a146103bd578063b8aede9c1461041e578063cabfaa1814610435578063da284dcc14610460575b600080fd5b3480156100d657600080fd5b506100df61048b565b604051808215151515815260200191505060405180910390f35b34801561010557600080fd5b5061013a600480360381019080803573ffffffffffffffffffffffffffffffffffffffff16906020019092919050505061049e565b6040518082815260200191505060405180910390f35b34801561015c57600080fd5b506101656104b6565b6040518082815260200191505060405180910390f35b34801561018757600080fd5b506101906104bc565b005b34801561019e57600080fd5b506101a7610675565b60405180806020018873ffffffffffffffffffffffffffffffffffffffff1673ffffffffffffffffffffffffffffffffffffffff1681526020018773ffffffffffffffffffffffffffffffffffffffff1673ffffffffffffffffffffffffffffffffffffffff1681526020018681526020018581526020018415151515815260200183151515158152602001828103825289818151815260200191508051906020019060200280838360005b8381101561026e578082015181840152602081019050610253565b505050509050019850505050505050505060405180910390f35b34801561029457600080fd5b5061029d61088c565b604051808215151515815260200191505060405180910390f35b3480156102c357600080fd5b506102cc61089f565b6040518080602001828103825283818151815260200191508051906020019060200280838360005b8381101561030f5780820151818401526020810190506102f4565b505050509050019250505060405180910390f35b34801561032f57600080fd5b50610364600480360381019080803573ffffffffffffffffffffffffffffffffffffffff16906020019092919050505061092d565b604051808273ffffffffffffffffffffffffffffffffffffffff1673ffffffffffffffffffffffffffffffffffffffff16815260200191505060405180910390f35b3480156103b257600080fd5b506103bb610960565b005b3480156103c957600080fd5b5061041c600480360381019080803590602001909291908035906020019092919080359060200190929190803573ffffffffffffffffffffffffffffffffffffffff1690602001909291905050506109bb565b005b34801561042a57600080fd5b50610433610cd0565b005b34801561044157600080fd5b5061044a6111cc565b6040518082815260200191505060405180910390f35b34801561046c57600080fd5b506104756111d9565b6040518082815260200191505060405180910390f35b600260019054906101000a900460ff1681565b60046020528060005260406000206000915090505481565b60015481565b6000806104c8336111df565b15156104d357600080fd5b600260009054906101000a900460ff1615156104ee57600080fd5b600560003373ffffffffffffffffffffffffffffffffffffffff1673ffffffffffffffffffffffffffffffffffffffff16815260200190815260200160002060009054906101000a900473ffffffffffffffffffffffffffffffffffffffff169150600460003373ffffffffffffffffffffffffffffffffffffffff1673ffffffffffffffffffffffffffffffffffffffff1681526020019081526020016000205490508173ffffffffffffffffffffffffffffffffffffffff1663a9059cbb33836040518363ffffffff167c0100000000000000000000000000000000000000000000000000000000028152600401808373ffffffffffffffffffffffffffffffffffffffff1673ffffffffffffffffffffffffffffffffffffffff16815260200182815260200192505050602060405180830381600087803b15801561063557600080fd5b505af1158015610649573d6000803e3d6000fd5b505050506040513d602081101561065f57600080fd5b8101908080519060200190929190505050505050565b6060600080600080600080600260038054905014151561069457600080fd5b600380548060200260200160405190810160405280929190818152602001828054801561071657602002820191906000526020600020905b8160009054906101000a900473ffffffffffffffffffffffffffffffffffffffff1673ffffffffffffffffffffffffffffffffffffffff16815260200190600101908083116106cc575b50505050509650600560006003600081548110151561073157fe5b9060005260206000200160009054906101000a900473ffffffffffffffffffffffffffffffffffffffff1673ffffffffffffffffffffffffffffffffffffffff1673ffffffffffffffffffffffffffffffffffffffff16815260200190815260200160002060009054906101000a900473ffffffffffffffffffffffffffffffffffffffff16955060056000600360018154811015156107cd57fe5b9060005260206000200160009054906101000a900473ffffffffffffffffffffffffffffffffffffffff1673ffffffffffffffffffffffffffffffffffffffff1673ffffffffffffffffffffffffffffffffffffffff16815260200190815260200160002060009054906101000a900473ffffffffffffffffffffffffffffffffffffffff16945060015493506000549250600260009054906101000a900460ff169150600260019054906101000a900460ff16905090919293949596565b600260009054906101000a900460ff1681565b6060600380548060200260200160405190810160405280929190818152602001828054801561092357602002820191906000526020600020905b8160009054906101000a900473ffffffffffffffffffffffffffffffffffffffff1673ffffffffffffffffffffffffffffffffffffffff16815260200190600101908083116108d9575b5050505050905090565b60056020528060005260406000206000915054906101000a900473ffffffffffffffffffffffffffffffffffffffff1681565b42600054118015610978575060038054905060015414155b151561098357600080fd5b6000600260016101000a81548160ff0219169083151502179055506001600260006101000a81548160ff021916908315150217905550565b600080600080600560008673ffffffffffffffffffffffffffffffffffffffff1673ffffffffffffffffffffffffffffffffffffffff16815260200190815260200160002060009054906101000a900473ffffffffffffffffffffffffffffffffffffffff1693508392508273ffffffffffffffffffffffffffffffffffffffff166370a08231866040518263ffffffff167c0100000000000000000000000000000000000000000000000000000000028152600401808273ffffffffffffffffffffffffffffffffffffffff1673ffffffffffffffffffffffffffffffffffffffff168152602001915050602060405180830381600087803b158015610ac157600080fd5b505af1158015610ad5573d6000803e3d6000fd5b505050506040513d6020811015610aeb57600080fd5b810190808051906020019092919050505091508273ffffffffffffffffffffffffffffffffffffffff166370a08231306040518263ffffffff167c0100000000000000000000000000000000000000000000000000000000028152600401808273ffffffffffffffffffffffffffffffffffffffff1673ffffffffffffffffffffffffffffffffffffffff168152602001915050602060405180830381600087803b158015610b9957600080fd5b505af1158015610bad573d6000803e3d6000fd5b505050506040513d6020811015610bc357600080fd5b81019080805190602001909291905050509050610be9888861128290919063ffffffff16565b82141515610bf657600080fd5b610c09888761129b90919063ffffffff16565b81141515610c1657600080fd5b610c6888600460008873ffffffffffffffffffffffffffffffffffffffff1673ffffffffffffffffffffffffffffffffffffffff1681526020019081526020016000205461129b90919063ffffffff16565b600460008773ffffffffffffffffffffffffffffffffffffffff1673ffffffffffffffffffffffffffffffffffffffff16815260200190815260200160002081905550610cc06001805461129b90919063ffffffff16565b6001819055505050505050505050565b600080610cdc336111df565b1515610ce757600080fd5b600380549050600154141515610cfc57600080fd5b600260019054906101000a900460ff161515610d1757600080fd5b6004600060036000815481101515610d2b57fe5b9060005260206000200160009054906101000a900473ffffffffffffffffffffffffffffffffffffffff1673ffffffffffffffffffffffffffffffffffffffff1673ffffffffffffffffffffffffffffffffffffffff1681526020019081526020016000205491506004600060036001815481101515610da757fe5b9060005260206000200160009054906101000a900473ffffffffffffffffffffffffffffffffffffffff1673ffffffffffffffffffffffffffffffffffffffff1673ffffffffffffffffffffffffffffffffffffffff168152602001908152602001600020546004600060036000815481101515610e2157fe5b9060005260206000200160009054906101000a900473ffffffffffffffffffffffffffffffffffffffff1673ffffffffffffffffffffffffffffffffffffffff1673ffffffffffffffffffffffffffffffffffffffff16815260200190815260200160002081905550816004600060036001815481101515610e9f57fe5b9060005260206000200160009054906101000a900473ffffffffffffffffffffffffffffffffffffffff1673ffffffffffffffffffffffffffffffffffffffff1673ffffffffffffffffffffffffffffffffffffffff168152602001908152602001600020819055506005600060036000815481101515610f1c57fe5b9060005260206000200160009054906101000a900473ffffffffffffffffffffffffffffffffffffffff1673ffffffffffffffffffffffffffffffffffffffff1673ffffffffffffffffffffffffffffffffffffffff16815260200190815260200160002060009054906101000a900473ffffffffffffffffffffffffffffffffffffffff1690506005600060036001815481101515610fb857fe5b9060005260206000200160009054906101000a900473ffffffffffffffffffffffffffffffffffffffff1673ffffffffffffffffffffffffffffffffffffffff1673ffffffffffffffffffffffffffffffffffffffff16815260200190815260200160002060009054906101000a900473ffffffffffffffffffffffffffffffffffffffff16600560006003600081548110151561105257fe5b9060005260206000200160009054906101000a900473ffffffffffffffffffffffffffffffffffffffff1673ffffffffffffffffffffffffffffffffffffffff1673ffffffffffffffffffffffffffffffffffffffff16815260200190815260200160002060006101000a81548173ffffffffffffffffffffffffffffffffffffffff021916908373ffffffffffffffffffffffffffffffffffffffff16021790555080600560006003600181548110151561110a57fe5b9060005260206000200160009054906101000a900473ffffffffffffffffffffffffffffffffffffffff1673ffffffffffffffffffffffffffffffffffffffff1673ffffffffffffffffffffffffffffffffffffffff16815260200190815260200160002060006101000a81548173ffffffffffffffffffffffffffffffffffffffff021916908373ffffffffffffffffffffffffffffffffffffffff1602179055506001600260006101000a81548160ff0219169083151502179055505050565b6000600380549050905090565b60005481565b600080600090505b600380549050811015611277578273ffffffffffffffffffffffffffffffffffffffff1660038281548110151561121a57fe5b9060005260206000200160009054906101000a900473ffffffffffffffffffffffffffffffffffffffff1673ffffffffffffffffffffffffffffffffffffffff16141561126a576001915061127c565b80806001019150506111e7565b600091505b50919050565b600082821115151561129057fe5b818303905092915050565b600081830190508281101515156112ae57fe5b809050929150505600a165627a7a72305820680d9e6d5b274f677caa3c10e9997804829ffc37f6f3057845abf94c2ae557ff0029",
  "source": "pragma solidity ^0.4.23;\n\nimport '../../node_modules/openzeppelin-solidity/contracts/token/ERC20/ERC20.sol';\nimport '../../node_modules/openzeppelin-solidity/contracts/math/SafeMath.sol';\n\ncontract ExchangeAgent {\n\tusing SafeMath for uint256;\n\n\tuint256 public expirationTime;\n\tuint256 public depositCount;\n\tbool public withdrawable;\n\tbool public finalizable;\n\n\taddress[] participants;\n\n\tmapping(address => uint256) public balances;\n\tmapping(address => address) public participantToken;\n\n\tconstructor(address[] _participants,\n\t\t\t\taddress[] _tokens,\n\t\t\t\tuint256 _timeToExpire) \n\tpublic {\n\t\texpirationTime = now + _timeToExpire;\n\t\tparticipants = _participants;\n\t\tparticipantToken[_participants[0]] = _tokens[0];\n\t\tparticipantToken[_participants[1]] = _tokens[1];\n\t\twithdrawable = false;\n\t\tfinalizable = true;\n\t}\n\n\tfunction depositSuccessfull(uint256 _amount,\n\t\t\t\t\t\t\t\tuint256 _previousSenderBalance, \n\t\t\t\t\t\t\t\tuint256 _previousContractBalance,\n\t\t\t\t\t\t\t\taddress _sender) \n\texternal {\n\t\taddress tokenAddress = participantToken[_sender];\n\t\tERC20 token = ERC20(tokenAddress);\n\t\tuint256 senderBalance = token.balanceOf(_sender);\n\t\tuint256 myBalance = token.balanceOf(address(this));\n\n\t\trequire(senderBalance == _previousSenderBalance.sub(_amount));\n\t\trequire(myBalance == _previousContractBalance.add(_amount));\n\n\t\tbalances[_sender] = balances[_sender].add(_amount);\n\t\tdepositCount = depositCount.add(1);\n\t}\n\n\tfunction finalizeExchange() external onlyParticipants {\n\t\trequire(depositCount == participants.length);\n\t\trequire(finalizable);\n\n\t\tuint256 balance = balances[participants[0]];\n\t\tbalances[participants[0]] = balances[participants[1]];\n\t\tbalances[participants[1]] = balance;\n\n\t\taddress tokenAddress = participantToken[participants[0]];\n\t\tparticipantToken[participants[0]] = participantToken[participants[1]];\n\t\tparticipantToken[participants[1]] = tokenAddress;\n\n\t\twithdrawable = true;\n\t}\n\n\tfunction fraudPreventiveFinalize() external {\n\t\trequire(expirationTime > now && depositCount != participants.length);\n\n\t\tfinalizable = false;\n\t\twithdrawable = true;\n\t}\n\n\tfunction withdraw() external onlyParticipants {\n\t\trequire(withdrawable);\n\n\t\tERC20 token = ERC20(participantToken[msg.sender]);\n\t\tuint256 amount = balances[msg.sender];\n\n\t\ttoken.transfer(msg.sender, amount);\n\t}\n\n\tfunction getParticipants() external view returns(address[]) {\n\t\treturn participants;\n\t}\n\n\tfunction getParticipantsCount() external view returns(uint256) {\n\t\treturn participants.length;\n\t}\n\n\tfunction getSummary() external view returns(address[] _participants,\n\t\t\t\t\t\t\t\t\t\t\t\taddress _firstToken,\n\t\t\t\t\t\t\t\t\t\t\t\taddress _secondToken, \n\t\t\t\t\t\t\t\t\t\t\t\tuint256 _depositCount, \n\t\t\t\t\t\t\t\t\t\t\t\tuint256 _expirationTime, \n\t\t\t\t\t\t\t\t\t\t\t\tbool _withdrawable, \n\t\t\t\t\t\t\t\t\t\t\t\tbool _finalizable)\n\t{\t\n\t\trequire(participants.length == 2);\n\n\t\t_participants = participants;\n\t\t_firstToken = participantToken[participants[0]];\n\t\t_secondToken = participantToken[participants[1]];\n\t\t_depositCount = depositCount;\n\t\t_expirationTime = expirationTime;\n\t\t_withdrawable = withdrawable;\n\t\t_finalizable = finalizable;\n\t}\n\n\tfunction _isParticipant(address _user) private view returns(bool) {\n\t\tfor(uint256 i = 0; i < participants.length; i++) {\n\t\t\tif(participants[i] == _user) {\n\t\t\t\treturn true;\n\t\t\t}\n\t\t}\n\n\t\treturn false;\n\t}\n\n\tmodifier onlyParticipants {\n\t\trequire(_isParticipant(msg.sender));\n\t\t_;\n\t}\n}",
  "sourcePath": "/Users/tomamajic/Desktop/Toma/Dev/otc-exchange/ethereum/contracts/ExchangeAgent.sol",
  "compiler": {
    "name": "solc",
    "version": "0.4.23+commit.124ca40d.Emscripten.clang"
  },
  "schemaVersion": "2.0.0",
  "updatedAt": "2018-08-20T12:34:40.785Z"
}