{
  "contractName": "AgentFactory",
  "abi": [
    {
      "constant": false,
      "inputs": [
        {
          "name": "_participants",
          "type": "address[]"
        },
        {
          "name": "_tokens",
          "type": "address[]"
        },
        {
          "name": "_timeToExpire",
          "type": "uint256"
        }
      ],
      "name": "createExchangeAgent",
      "outputs": [],
      "payable": false,
      "stateMutability": "nonpayable",
      "type": "function"
    },
    {
      "constant": true,
      "inputs": [],
      "name": "getExchangeAgents",
      "outputs": [
        {
          "name": "",
          "type": "address[]"
        }
      ],
      "payable": false,
      "stateMutability": "view",
      "type": "function"
    }
  ],
  "bytecode": "0x608060405234801561001057600080fd5b506118a6806100206000396000f30060806040526004361061004c576000357c0100000000000000000000000000000000000000000000000000000000900463ffffffff1680637ef9eb5d14610051578063eebf8b59146100bd575b600080fd5b34801561005d57600080fd5b5061006661011a565b6040518080602001828103825283818151815260200191508051906020019060200280838360005b838110156100a957808201518184015260208101905061008e565b505050509050019250505060405180910390f35b3480156100c957600080fd5b50610118600480360381019080803590602001908201803590602001919091929391929390803590602001908201803590602001919091929391929390803590602001909291905050506101a8565b005b6060600080548060200260200160405190810160405280929190818152602001828054801561019e57602002820191906000526020600020905b8160009054906101000a900473ffffffffffffffffffffffffffffffffffffffff1673ffffffffffffffffffffffffffffffffffffffff1681526020019060010190808311610154575b5050505050905090565b600085858585856101b7610294565b8080602001806020018481526020018381038352888882818152602001925060200280828437820191505083810382528686828181526020019250602002808284378201915050975050505050505050604051809103906000f080158015610223573d6000803e3d6000fd5b50905060008190806001815401808255809150509060018203906000526020600020016000909192909190916101000a81548173ffffffffffffffffffffffffffffffffffffffff021916908373ffffffffffffffffffffffffffffffffffffffff16021790555050505050505050565b6040516115d6806102a583390190560060806040523480156200001157600080fd5b50604051620015d6380380620015d683398101806040528101908080518201929190602001805182019291906020018051906020019092919050505080420160008190555082600390805190602001906200006e9291906200020e565b508160008151811015156200007f57fe5b90602001906020020151600560008560008151811015156200009d57fe5b9060200190602002015173ffffffffffffffffffffffffffffffffffffffff1673ffffffffffffffffffffffffffffffffffffffff16815260200190815260200160002060006101000a81548173ffffffffffffffffffffffffffffffffffffffff021916908373ffffffffffffffffffffffffffffffffffffffff1602179055508160018151811015156200012f57fe5b90602001906020020151600560008560018151811015156200014d57fe5b9060200190602002015173ffffffffffffffffffffffffffffffffffffffff1673ffffffffffffffffffffffffffffffffffffffff16815260200190815260200160002060006101000a81548173ffffffffffffffffffffffffffffffffffffffff021916908373ffffffffffffffffffffffffffffffffffffffff1602179055506000600260006101000a81548160ff0219169083151502179055506001600260016101000a81548160ff021916908315150217905550505050620002e3565b8280548282559060005260206000209081019282156200028a579160200282015b82811115620002895782518260006101000a81548173ffffffffffffffffffffffffffffffffffffffff021916908373ffffffffffffffffffffffffffffffffffffffff160217905550916020019190600101906200022f565b5b5090506200029991906200029d565b5090565b620002e091905b80821115620002dc57600081816101000a81549073ffffffffffffffffffffffffffffffffffffffff021916905550600101620002a4565b5090565b90565b6112e380620002f36000396000f3006080604052600436106100c5576000357c0100000000000000000000000000000000000000000000000000000000900463ffffffff168063107e8456146100ca57806327e235e3146100f95780632dfdf0b5146101505780633ccfd60b1461017b5780634051ddac1461019257806350188301146102885780635aa68ac0146102b7578063604f9175146103235780636b18eca8146103a65780638975571a146103bd578063b8aede9c1461041e578063cabfaa1814610435578063da284dcc14610460575b600080fd5b3480156100d657600080fd5b506100df61048b565b604051808215151515815260200191505060405180910390f35b34801561010557600080fd5b5061013a600480360381019080803573ffffffffffffffffffffffffffffffffffffffff16906020019092919050505061049e565b6040518082815260200191505060405180910390f35b34801561015c57600080fd5b506101656104b6565b6040518082815260200191505060405180910390f35b34801561018757600080fd5b506101906104bc565b005b34801561019e57600080fd5b506101a7610675565b60405180806020018873ffffffffffffffffffffffffffffffffffffffff1673ffffffffffffffffffffffffffffffffffffffff1681526020018773ffffffffffffffffffffffffffffffffffffffff1673ffffffffffffffffffffffffffffffffffffffff1681526020018681526020018581526020018415151515815260200183151515158152602001828103825289818151815260200191508051906020019060200280838360005b8381101561026e578082015181840152602081019050610253565b505050509050019850505050505050505060405180910390f35b34801561029457600080fd5b5061029d61088c565b604051808215151515815260200191505060405180910390f35b3480156102c357600080fd5b506102cc61089f565b6040518080602001828103825283818151815260200191508051906020019060200280838360005b8381101561030f5780820151818401526020810190506102f4565b505050509050019250505060405180910390f35b34801561032f57600080fd5b50610364600480360381019080803573ffffffffffffffffffffffffffffffffffffffff16906020019092919050505061092d565b604051808273ffffffffffffffffffffffffffffffffffffffff1673ffffffffffffffffffffffffffffffffffffffff16815260200191505060405180910390f35b3480156103b257600080fd5b506103bb610960565b005b3480156103c957600080fd5b5061041c600480360381019080803590602001909291908035906020019092919080359060200190929190803573ffffffffffffffffffffffffffffffffffffffff1690602001909291905050506109bb565b005b34801561042a57600080fd5b50610433610cd0565b005b34801561044157600080fd5b5061044a6111cc565b6040518082815260200191505060405180910390f35b34801561046c57600080fd5b506104756111d9565b6040518082815260200191505060405180910390f35b600260019054906101000a900460ff1681565b60046020528060005260406000206000915090505481565b60015481565b6000806104c8336111df565b15156104d357600080fd5b600260009054906101000a900460ff1615156104ee57600080fd5b600560003373ffffffffffffffffffffffffffffffffffffffff1673ffffffffffffffffffffffffffffffffffffffff16815260200190815260200160002060009054906101000a900473ffffffffffffffffffffffffffffffffffffffff169150600460003373ffffffffffffffffffffffffffffffffffffffff1673ffffffffffffffffffffffffffffffffffffffff1681526020019081526020016000205490508173ffffffffffffffffffffffffffffffffffffffff1663a9059cbb33836040518363ffffffff167c0100000000000000000000000000000000000000000000000000000000028152600401808373ffffffffffffffffffffffffffffffffffffffff1673ffffffffffffffffffffffffffffffffffffffff16815260200182815260200192505050602060405180830381600087803b15801561063557600080fd5b505af1158015610649573d6000803e3d6000fd5b505050506040513d602081101561065f57600080fd5b8101908080519060200190929190505050505050565b6060600080600080600080600260038054905014151561069457600080fd5b600380548060200260200160405190810160405280929190818152602001828054801561071657602002820191906000526020600020905b8160009054906101000a900473ffffffffffffffffffffffffffffffffffffffff1673ffffffffffffffffffffffffffffffffffffffff16815260200190600101908083116106cc575b50505050509650600560006003600081548110151561073157fe5b9060005260206000200160009054906101000a900473ffffffffffffffffffffffffffffffffffffffff1673ffffffffffffffffffffffffffffffffffffffff1673ffffffffffffffffffffffffffffffffffffffff16815260200190815260200160002060009054906101000a900473ffffffffffffffffffffffffffffffffffffffff16955060056000600360018154811015156107cd57fe5b9060005260206000200160009054906101000a900473ffffffffffffffffffffffffffffffffffffffff1673ffffffffffffffffffffffffffffffffffffffff1673ffffffffffffffffffffffffffffffffffffffff16815260200190815260200160002060009054906101000a900473ffffffffffffffffffffffffffffffffffffffff16945060015493506000549250600260009054906101000a900460ff169150600260019054906101000a900460ff16905090919293949596565b600260009054906101000a900460ff1681565b6060600380548060200260200160405190810160405280929190818152602001828054801561092357602002820191906000526020600020905b8160009054906101000a900473ffffffffffffffffffffffffffffffffffffffff1673ffffffffffffffffffffffffffffffffffffffff16815260200190600101908083116108d9575b5050505050905090565b60056020528060005260406000206000915054906101000a900473ffffffffffffffffffffffffffffffffffffffff1681565b42600054118015610978575060038054905060015414155b151561098357600080fd5b6000600260016101000a81548160ff0219169083151502179055506001600260006101000a81548160ff021916908315150217905550565b600080600080600560008673ffffffffffffffffffffffffffffffffffffffff1673ffffffffffffffffffffffffffffffffffffffff16815260200190815260200160002060009054906101000a900473ffffffffffffffffffffffffffffffffffffffff1693508392508273ffffffffffffffffffffffffffffffffffffffff166370a08231866040518263ffffffff167c0100000000000000000000000000000000000000000000000000000000028152600401808273ffffffffffffffffffffffffffffffffffffffff1673ffffffffffffffffffffffffffffffffffffffff168152602001915050602060405180830381600087803b158015610ac157600080fd5b505af1158015610ad5573d6000803e3d6000fd5b505050506040513d6020811015610aeb57600080fd5b810190808051906020019092919050505091508273ffffffffffffffffffffffffffffffffffffffff166370a08231306040518263ffffffff167c0100000000000000000000000000000000000000000000000000000000028152600401808273ffffffffffffffffffffffffffffffffffffffff1673ffffffffffffffffffffffffffffffffffffffff168152602001915050602060405180830381600087803b158015610b9957600080fd5b505af1158015610bad573d6000803e3d6000fd5b505050506040513d6020811015610bc357600080fd5b81019080805190602001909291905050509050610be9888861128290919063ffffffff16565b82141515610bf657600080fd5b610c09888761129b90919063ffffffff16565b81141515610c1657600080fd5b610c6888600460008873ffffffffffffffffffffffffffffffffffffffff1673ffffffffffffffffffffffffffffffffffffffff1681526020019081526020016000205461129b90919063ffffffff16565b600460008773ffffffffffffffffffffffffffffffffffffffff1673ffffffffffffffffffffffffffffffffffffffff16815260200190815260200160002081905550610cc06001805461129b90919063ffffffff16565b6001819055505050505050505050565b600080610cdc336111df565b1515610ce757600080fd5b600380549050600154141515610cfc57600080fd5b600260019054906101000a900460ff161515610d1757600080fd5b6004600060036000815481101515610d2b57fe5b9060005260206000200160009054906101000a900473ffffffffffffffffffffffffffffffffffffffff1673ffffffffffffffffffffffffffffffffffffffff1673ffffffffffffffffffffffffffffffffffffffff1681526020019081526020016000205491506004600060036001815481101515610da757fe5b9060005260206000200160009054906101000a900473ffffffffffffffffffffffffffffffffffffffff1673ffffffffffffffffffffffffffffffffffffffff1673ffffffffffffffffffffffffffffffffffffffff168152602001908152602001600020546004600060036000815481101515610e2157fe5b9060005260206000200160009054906101000a900473ffffffffffffffffffffffffffffffffffffffff1673ffffffffffffffffffffffffffffffffffffffff1673ffffffffffffffffffffffffffffffffffffffff16815260200190815260200160002081905550816004600060036001815481101515610e9f57fe5b9060005260206000200160009054906101000a900473ffffffffffffffffffffffffffffffffffffffff1673ffffffffffffffffffffffffffffffffffffffff1673ffffffffffffffffffffffffffffffffffffffff168152602001908152602001600020819055506005600060036000815481101515610f1c57fe5b9060005260206000200160009054906101000a900473ffffffffffffffffffffffffffffffffffffffff1673ffffffffffffffffffffffffffffffffffffffff1673ffffffffffffffffffffffffffffffffffffffff16815260200190815260200160002060009054906101000a900473ffffffffffffffffffffffffffffffffffffffff1690506005600060036001815481101515610fb857fe5b9060005260206000200160009054906101000a900473ffffffffffffffffffffffffffffffffffffffff1673ffffffffffffffffffffffffffffffffffffffff1673ffffffffffffffffffffffffffffffffffffffff16815260200190815260200160002060009054906101000a900473ffffffffffffffffffffffffffffffffffffffff16600560006003600081548110151561105257fe5b9060005260206000200160009054906101000a900473ffffffffffffffffffffffffffffffffffffffff1673ffffffffffffffffffffffffffffffffffffffff1673ffffffffffffffffffffffffffffffffffffffff16815260200190815260200160002060006101000a81548173ffffffffffffffffffffffffffffffffffffffff021916908373ffffffffffffffffffffffffffffffffffffffff16021790555080600560006003600181548110151561110a57fe5b9060005260206000200160009054906101000a900473ffffffffffffffffffffffffffffffffffffffff1673ffffffffffffffffffffffffffffffffffffffff1673ffffffffffffffffffffffffffffffffffffffff16815260200190815260200160002060006101000a81548173ffffffffffffffffffffffffffffffffffffffff021916908373ffffffffffffffffffffffffffffffffffffffff1602179055506001600260006101000a81548160ff0219169083151502179055505050565b6000600380549050905090565b60005481565b600080600090505b600380549050811015611277578273ffffffffffffffffffffffffffffffffffffffff1660038281548110151561121a57fe5b9060005260206000200160009054906101000a900473ffffffffffffffffffffffffffffffffffffffff1673ffffffffffffffffffffffffffffffffffffffff16141561126a576001915061127c565b80806001019150506111e7565b600091505b50919050565b600082821115151561129057fe5b818303905092915050565b600081830190508281101515156112ae57fe5b809050929150505600a165627a7a72305820680d9e6d5b274f677caa3c10e9997804829ffc37f6f3057845abf94c2ae557ff0029a165627a7a72305820a827be33e1bd34408e1dad520ad7efb4840320c737ceb413769cba35b486297a0029",
  "source": "pragma solidity ^0.4.23;\n\nimport './ExchangeAgent.sol';\n\ncontract AgentFactory {\n\taddress[] agents;\n\n\tfunction createExchangeAgent(address[] _participants,\n\t\t\t\t\t\t\t\t address[] _tokens,\n\t\t\t\t\t\t\t\t uint256 _timeToExpire) \n\texternal {\n\t\taddress agent = new ExchangeAgent(_participants, _tokens, _timeToExpire);\n\t\tagents.push(agent);\n\t}\n\n\tfunction getExchangeAgents() external view returns(address[]) {\n\t\treturn agents;\n\t}\n}\n",
  "sourcePath": "/Users/tomamajic/Desktop/Toma/Dev/otc-exchange/ethereum/contracts/AgentFactory.sol",
  "compiler": {
    "name": "solc",
    "version": "0.4.23+commit.124ca40d.Emscripten.clang"
  },
  "schemaVersion": "2.0.0",
  "updatedAt": "2018-08-20T12:36:08.505Z"
}